{
  "_format": "hh-sol-artifact-1",
  "contractName": "KlaytnKIP37",
  "sourceName": "contracts/KlaytnKIP37.sol",
  "abi": [
    {
      "anonymous": false,
      "inputs": [
        {
          "indexed": true,
          "internalType": "address",
          "name": "account",
          "type": "address"
        },
        {
          "indexed": true,
          "internalType": "address",
          "name": "operator",
          "type": "address"
        },
        {
          "indexed": false,
          "internalType": "bool",
          "name": "approved",
          "type": "bool"
        }
      ],
      "name": "ApprovalForAll",
      "type": "event"
    },
    {
      "anonymous": false,
      "inputs": [
        {
          "indexed": false,
          "internalType": "uint8",
          "name": "version",
          "type": "uint8"
        }
      ],
      "name": "Initialized",
      "type": "event"
    },
    {
      "anonymous": false,
      "inputs": [
        {
          "indexed": true,
          "internalType": "address",
          "name": "operator",
          "type": "address"
        },
        {
          "indexed": true,
          "internalType": "address",
          "name": "from",
          "type": "address"
        },
        {
          "indexed": true,
          "internalType": "address",
          "name": "to",
          "type": "address"
        },
        {
          "indexed": false,
          "internalType": "uint256[]",
          "name": "ids",
          "type": "uint256[]"
        },
        {
          "indexed": false,
          "internalType": "uint256[]",
          "name": "values",
          "type": "uint256[]"
        }
      ],
      "name": "TransferBatch",
      "type": "event"
    },
    {
      "anonymous": false,
      "inputs": [
        {
          "indexed": true,
          "internalType": "address",
          "name": "operator",
          "type": "address"
        },
        {
          "indexed": true,
          "internalType": "address",
          "name": "from",
          "type": "address"
        },
        {
          "indexed": true,
          "internalType": "address",
          "name": "to",
          "type": "address"
        },
        {
          "indexed": false,
          "internalType": "uint256",
          "name": "id",
          "type": "uint256"
        },
        {
          "indexed": false,
          "internalType": "uint256",
          "name": "value",
          "type": "uint256"
        }
      ],
      "name": "TransferSingle",
      "type": "event"
    },
    {
      "anonymous": false,
      "inputs": [
        {
          "indexed": false,
          "internalType": "string",
          "name": "value",
          "type": "string"
        },
        {
          "indexed": true,
          "internalType": "uint256",
          "name": "id",
          "type": "uint256"
        }
      ],
      "name": "URI",
      "type": "event"
    },
    {
      "anonymous": false,
      "inputs": [
        {
          "indexed": true,
          "internalType": "uint256",
          "name": "tokenId",
          "type": "uint256"
        },
        {
          "indexed": false,
          "internalType": "string",
          "name": "tokenUri",
          "type": "string"
        },
        {
          "indexed": false,
          "internalType": "uint256",
          "name": "quantity",
          "type": "uint256"
        },
        {
          "indexed": false,
          "internalType": "address",
          "name": "ownerAdress",
          "type": "address"
        }
      ],
      "name": "assetInformation",
      "type": "event"
    },
    {
      "anonymous": false,
      "inputs": [
        {
          "indexed": true,
          "internalType": "string",
          "name": "marektId",
          "type": "string"
        },
        {
          "indexed": false,
          "internalType": "uint256",
          "name": "tokenId",
          "type": "uint256"
        },
        {
          "indexed": false,
          "internalType": "string",
          "name": "tokenUri",
          "type": "string"
        },
        {
          "indexed": false,
          "internalType": "uint256",
          "name": "quantity",
          "type": "uint256"
        },
        {
          "indexed": false,
          "internalType": "address",
          "name": "ownerAdress",
          "type": "address"
        }
      ],
      "name": "marketInformation",
      "type": "event"
    },
    {
      "anonymous": false,
      "inputs": [
        {
          "indexed": true,
          "internalType": "string",
          "name": "marektId",
          "type": "string"
        },
        {
          "indexed": false,
          "internalType": "uint256",
          "name": "tokenId",
          "type": "uint256"
        },
        {
          "indexed": false,
          "internalType": "string",
          "name": "tokenUri",
          "type": "string"
        },
        {
          "indexed": false,
          "internalType": "uint256",
          "name": "quantity",
          "type": "uint256"
        },
        {
          "indexed": false,
          "internalType": "address",
          "name": "sellerAdress",
          "type": "address"
        },
        {
          "indexed": false,
          "internalType": "address",
          "name": "buyerAdress",
          "type": "address"
        }
      ],
      "name": "orderInformation",
      "type": "event"
    },
    {
      "inputs": [
        {
          "internalType": "address",
          "name": "account",
          "type": "address"
        },
        {
          "internalType": "uint256",
          "name": "id",
          "type": "uint256"
        }
      ],
      "name": "balanceOf",
      "outputs": [
        {
          "internalType": "uint256",
          "name": "",
          "type": "uint256"
        }
      ],
      "stateMutability": "view",
      "type": "function"
    },
    {
      "inputs": [
        {
          "internalType": "address[]",
          "name": "accounts",
          "type": "address[]"
        },
        {
          "internalType": "uint256[]",
          "name": "ids",
          "type": "uint256[]"
        }
      ],
      "name": "balanceOfBatch",
      "outputs": [
        {
          "internalType": "uint256[]",
          "name": "",
          "type": "uint256[]"
        }
      ],
      "stateMutability": "view",
      "type": "function"
    },
    {
      "inputs": [
        {
          "internalType": "uint256",
          "name": "_tokenId",
          "type": "uint256"
        }
      ],
      "name": "getCreatorList",
      "outputs": [
        {
          "internalType": "address",
          "name": "",
          "type": "address"
        }
      ],
      "stateMutability": "view",
      "type": "function"
    },
    {
      "inputs": [],
      "name": "initialize",
      "outputs": [],
      "stateMutability": "nonpayable",
      "type": "function"
    },
    {
      "inputs": [
        {
          "internalType": "address",
          "name": "account",
          "type": "address"
        },
        {
          "internalType": "address",
          "name": "operator",
          "type": "address"
        }
      ],
      "name": "isApprovedForAll",
      "outputs": [
        {
          "internalType": "bool",
          "name": "",
          "type": "bool"
        }
      ],
      "stateMutability": "view",
      "type": "function"
    },
    {
      "inputs": [
        {
          "internalType": "uint256",
          "name": "_tokenId",
          "type": "uint256"
        },
        {
          "internalType": "uint256",
          "name": "_quantity",
          "type": "uint256"
        }
      ],
      "name": "mint",
      "outputs": [],
      "stateMutability": "nonpayable",
      "type": "function"
    },
    {
      "inputs": [
        {
          "internalType": "address",
          "name": "from",
          "type": "address"
        },
        {
          "internalType": "address",
          "name": "to",
          "type": "address"
        },
        {
          "internalType": "uint256[]",
          "name": "ids",
          "type": "uint256[]"
        },
        {
          "internalType": "uint256[]",
          "name": "amounts",
          "type": "uint256[]"
        },
        {
          "internalType": "bytes",
          "name": "data",
          "type": "bytes"
        }
      ],
      "name": "safeBatchTransferFrom",
      "outputs": [],
      "stateMutability": "nonpayable",
      "type": "function"
    },
    {
      "inputs": [
        {
          "internalType": "address",
          "name": "from",
          "type": "address"
        },
        {
          "internalType": "address",
          "name": "to",
          "type": "address"
        },
        {
          "internalType": "uint256",
          "name": "id",
          "type": "uint256"
        },
        {
          "internalType": "uint256",
          "name": "amount",
          "type": "uint256"
        },
        {
          "internalType": "bytes",
          "name": "data",
          "type": "bytes"
        }
      ],
      "name": "safeTransferFrom",
      "outputs": [],
      "stateMutability": "nonpayable",
      "type": "function"
    },
    {
      "inputs": [
        {
          "internalType": "address",
          "name": "operator",
          "type": "address"
        },
        {
          "internalType": "bool",
          "name": "approved",
          "type": "bool"
        }
      ],
      "name": "setApprovalForAll",
      "outputs": [],
      "stateMutability": "nonpayable",
      "type": "function"
    },
    {
      "inputs": [
        {
          "internalType": "string",
          "name": "_marketId",
          "type": "string"
        },
        {
          "internalType": "uint256",
          "name": "_tokenId",
          "type": "uint256"
        },
        {
          "internalType": "string",
          "name": "_tokenUri",
          "type": "string"
        },
        {
          "internalType": "uint256",
          "name": "_quantity",
          "type": "uint256"
        }
      ],
      "name": "setKRWOrder",
      "outputs": [
        {
          "internalType": "uint256",
          "name": "",
          "type": "uint256"
        }
      ],
      "stateMutability": "payable",
      "type": "function"
    },
    {
      "inputs": [
        {
          "internalType": "string",
          "name": "_marketId",
          "type": "string"
        },
        {
          "internalType": "uint256",
          "name": "_tokenId",
          "type": "uint256"
        },
        {
          "internalType": "uint256",
          "name": "_supply",
          "type": "uint256"
        },
        {
          "internalType": "string",
          "name": "_tokenUri",
          "type": "string"
        }
      ],
      "name": "setListing",
      "outputs": [
        {
          "internalType": "string",
          "name": "",
          "type": "string"
        }
      ],
      "stateMutability": "nonpayable",
      "type": "function"
    },
    {
      "inputs": [
        {
          "internalType": "uint256",
          "name": "_tokenId",
          "type": "uint256"
        },
        {
          "internalType": "uint256",
          "name": "_supply",
          "type": "uint256"
        },
        {
          "internalType": "string",
          "name": "_tokenUri",
          "type": "string"
        }
      ],
      "name": "setMint",
      "outputs": [
        {
          "internalType": "uint256",
          "name": "",
          "type": "uint256"
        }
      ],
      "stateMutability": "nonpayable",
      "type": "function"
    },
    {
      "inputs": [
        {
          "internalType": "string",
          "name": "_marketId",
          "type": "string"
        },
        {
          "internalType": "uint256",
          "name": "_tokenId",
          "type": "uint256"
        },
        {
          "internalType": "uint256",
          "name": "_quantity",
          "type": "uint256"
        },
        {
          "internalType": "uint256",
          "name": "_createFee",
          "type": "uint256"
        },
        {
          "internalType": "uint256",
          "name": "_serviceFee",
          "type": "uint256"
        },
        {
          "internalType": "uint256",
          "name": "_sellerPrice",
          "type": "uint256"
        },
        {
          "internalType": "string",
          "name": "_tokenUri",
          "type": "string"
        }
      ],
      "name": "setOrder",
      "outputs": [
        {
          "internalType": "uint256",
          "name": "",
          "type": "uint256"
        }
      ],
      "stateMutability": "payable",
      "type": "function"
    },
    {
      "inputs": [
        {
          "internalType": "uint256",
          "name": "_tokenId",
          "type": "uint256"
        },
        {
          "internalType": "string",
          "name": "_uri",
          "type": "string"
        }
      ],
      "name": "setTokenUri",
      "outputs": [],
      "stateMutability": "nonpayable",
      "type": "function"
    },
    {
      "inputs": [
        {
          "internalType": "bytes4",
          "name": "interfaceId",
          "type": "bytes4"
        }
      ],
      "name": "supportsInterface",
      "outputs": [
        {
          "internalType": "bool",
          "name": "",
          "type": "bool"
        }
      ],
      "stateMutability": "view",
      "type": "function"
    },
    {
      "inputs": [
        {
          "internalType": "uint256",
          "name": "tokenId",
          "type": "uint256"
        }
      ],
      "name": "uri",
      "outputs": [
        {
          "internalType": "string",
          "name": "",
          "type": "string"
        }
      ],
      "stateMutability": "view",
      "type": "function"
    }
  ],
  "bytecode": "0x608060405234801561001057600080fd5b5061232d806100206000396000f3fe6080604052600436106100f25760003560e01c806357f7789e1161008a578063af687bc611610059578063af687bc6146102bf578063e985e9c5146102df578063e9b9ac86146102ff578063f242432a1461031f57600080fd5b806357f7789e146102575780638129fc1c14610277578063a22cb4651461028c578063a2ade607146102ac57600080fd5b80631b2ef1ca116100c65780631b2ef1ca1461019a5780632eb2c2d6146101bc57806348634cd4146101dc5780634e1273f41461022a57600080fd5b8062fdd58e146100f757806301ffc9a71461012a5780630cd31ed21461015a5780630e89341c1461016d575b600080fd5b34801561010357600080fd5b506101176101123660046119cb565b61033f565b6040519081526020015b60405180910390f35b34801561013657600080fd5b5061014a610145366004611ac5565b6103d7565b6040519015158152602001610121565b610117610168366004611bf0565b610429565b34801561017957600080fd5b5061018d610188366004611c83565b610708565b6040516101219190611eb0565b3480156101a657600080fd5b506101ba6101b5366004611cd8565b6107aa565b005b3480156101c857600080fd5b506101ba6101d7366004611882565b6107e6565b3480156101e857600080fd5b506102126101f7366004611c83565b600090815260cb60205260409020546001600160a01b031690565b6040516001600160a01b039091168152602001610121565b34801561023657600080fd5b5061024a6102453660046119f5565b610832565b6040516101219190611e6f565b34801561026357600080fd5b506101ba610272366004611c9c565b61095b565b34801561028357600080fd5b506101ba6109de565b34801561029857600080fd5b506101ba6102a736600461198f565b610b1a565b6101176102ba366004611b06565b610b29565b3480156102cb57600080fd5b506101176102da366004611cfa565b610cd9565b3480156102eb57600080fd5b5061014a6102fa36600461184f565b610d72565b34801561030b57600080fd5b5061018d61031a366004611b7a565b610da0565b34801561032b57600080fd5b506101ba61033a36600461192b565b610e7c565b60006001600160a01b0383166103af5760405162461bcd60e51b815260206004820152602a60248201527f455243313135353a2061646472657373207a65726f206973206e6f742061207660448201526930b634b21037bbb732b960b11b60648201526084015b60405180910390fd5b5060009081526065602090815260408083206001600160a01b03949094168352929052205490565b60006001600160e01b03198216636cdb3d1360e11b148061040857506001600160e01b031982166303a24d0760e21b145b8061042357506301ffc9a760e01b6001600160e01b03198316145b92915050565b60c9546000906001600160a01b0316331480610456575060c954610456906001600160a01b031633610d72565b6104905760405162461bcd60e51b815260206004820152600b60248201526a4f6e6c79204f776e65722160a81b60448201526064016103a6565b856104c360cc8a6040516104a49190611db0565b908152604051908190036020019020546001600160a01b03168961033f565b10156105035760405162461bcd60e51b815260206004820152600f60248201526e436865636b205175616e746974792160881b60448201526064016103a6565b348361050f8688612104565b6105199190612104565b146105555760405162461bcd60e51b815260206004820152600c60248201526b436865636b2050726963652160a01b60448201526064016103a6565b6105a660cc896040516105689190611db0565b9081526040805191829003602090810183205483830190925260048352630307830360e41b908301526001600160a01b03169033908a908a90610e7c565b84156105f257600087815260cb60205260408082205490516001600160a01b039091169187156108fc02918891818181858888f193505050501580156105f0573d6000803e3d6000fd5b505b60cc886040516106029190611db0565b908152604051908190036020018120546001600160a01b03169084156108fc029085906000818181858888f19350505050158015610644573d6000803e3d6000fd5b5060c9546040516001600160a01b039091169085156108fc029086906000818181858888f1935050505015801561067f573d6000803e3d6000fd5b508760405161068e9190611db0565b60405180910390207fd1755ff4ac6a7505a5f75484540b47382edcf994d187c692b51ed564efa785d788848960cc8d6040516106ca9190611db0565b908152604051908190036020018120546106f4949392916001600160a01b039091169033906120a1565b60405180910390a250949695505050505050565b600081815260ca602052604090208054606091906107259061214c565b80601f01602080910402602001604051908101604052809291908181526020018280546107519061214c565b801561079e5780601f106107735761010080835404028352916020019161079e565b820191906000526020600020905b81548152906001019060200180831161078157829003601f168201915b50505050509050919050565b6107c533838360405180602001604052806000815250610ec1565b50600090815260cb6020526040902080546001600160a01b03191633179055565b6001600160a01b03851633148061080257506108028533610d72565b61081e5760405162461bcd60e51b81526004016103a690611ef6565b61082b8585858585610fd7565b5050505050565b606081518351146108975760405162461bcd60e51b815260206004820152602960248201527f455243313135353a206163636f756e747320616e6420696473206c656e677468604482015268040dad2e6dac2e8c6d60bb1b60648201526084016103a6565b600083516001600160401b038111156108b2576108b26121fa565b6040519080825280602002602001820160405280156108db578160200160208202803683370190505b50905060005b8451811015610953576109268582815181106108ff576108ff6121e4565b6020026020010151858381518110610919576109196121e4565b602002602001015161033f565b828281518110610938576109386121e4565b602090810291909101015261094c816121b3565b90506108e1565b509392505050565b600082815260ca6020526040902080546109749061214c565b1590506109ba5760405162461bcd60e51b815260206004820152601460248201527343616e6e6f74207365742075726920747769636560601b60448201526064016103a6565b600082815260ca6020908152604090912082516109d9928401906116b0565b505050565b600054610100900460ff16158080156109fe5750600054600160ff909116105b80610a185750303b158015610a18575060005460ff166001145b610a7b5760405162461bcd60e51b815260206004820152602e60248201527f496e697469616c697a61626c653a20636f6e747261637420697320616c72656160448201526d191e481a5b9a5d1a585b1a5e995960921b60648201526084016103a6565b6000805460ff191660011790558015610a9e576000805461ff0019166101001790555b610abf6040518060600160405280602c81526020016122cc602c91396111b7565b60c980546001600160a01b031916331790558015610b17576000805461ff0019169055604051600181527f7f26b83ff96e1f2b6a682f133852f6798a09c465da95921460cefb38474024989060200160405180910390a15b50565b610b253383836111e7565b5050565b60c9546000906001600160a01b0316331480610b56575060c954610b56906001600160a01b031633610d72565b610b905760405162461bcd60e51b815260206004820152600b60248201526a4f6e6c79204f776e65722160a81b60448201526064016103a6565b81610bc360cc87604051610ba49190611db0565b908152604051908190036020019020546001600160a01b03168661033f565b1015610c035760405162461bcd60e51b815260206004820152600f60248201526e436865636b205175616e746974792160881b60448201526064016103a6565b610c5460cc86604051610c169190611db0565b9081526040805191829003602090810183205483830190925260048352630307830360e41b908301526001600160a01b031690339087908690610e7c565b84604051610c629190611db0565b60405180910390207fd1755ff4ac6a7505a5f75484540b47382edcf994d187c692b51ed564efa785d785858560cc8a604051610c9e9190611db0565b90815260405190819003602001812054610cc8949392916001600160a01b039091169033906120a1565b60405180910390a250919392505050565b6000808311610d1a5760405162461bcd60e51b815260206004820152600d60248201526c436865636b20537570706c792160981b60448201526064016103a6565b610d2484846107aa565b610d2e848361095b565b837f0a836d5d39466b2f36a382ee6a87b1a98c0e06d4da9c2c00222919c25f0bb5d3838533604051610d6293929190611ec3565b60405180910390a2509192915050565b6001600160a01b03918216600090815260666020908152604080832093909416825291909152205460ff1690565b606060008311610de25760405162461bcd60e51b815260206004820152600d60248201526c436865636b20537570706c792160981b60448201526064016103a6565b3360cc86604051610df39190611db0565b90815260405190819003602001812080546001600160a01b03939093166001600160a01b031990931692909217909155610e2e908690611db0565b60405180910390207fb096e356679dacc242e62c27e88abe819c505dcfae5355c592b10d79b8425fbc85848633604051610e6b9493929190612067565b60405180910390a250929392505050565b6001600160a01b038516331480610e985750610e988533610d72565b610eb45760405162461bcd60e51b81526004016103a690611ef6565b61082b85858585856112c8565b6001600160a01b038416610f215760405162461bcd60e51b815260206004820152602160248201527f455243313135353a206d696e7420746f20746865207a65726f206164647265736044820152607360f81b60648201526084016103a6565b336000610f2d856113f6565b90506000610f3a856113f6565b905060008681526065602090815260408083206001600160a01b038b16845290915281208054879290610f6e908490612104565b909155505060408051878152602081018790526001600160a01b03808a1692600092918716917fc3d58168c5ae7397731d063d5bbf3d657854427343f4c083240f7aacaa2d0f62910160405180910390a4610fce83600089898989611441565b50505050505050565b81518351146110395760405162461bcd60e51b815260206004820152602860248201527f455243313135353a2069647320616e6420616d6f756e7473206c656e677468206044820152670dad2e6dac2e8c6d60c31b60648201526084016103a6565b6001600160a01b03841661105f5760405162461bcd60e51b81526004016103a690611f8d565b3360005b8451811015611149576000858281518110611080576110806121e4565b60200260200101519050600085838151811061109e5761109e6121e4565b60209081029190910181015160008481526065835260408082206001600160a01b038e1683529093529190912054909150818110156110ef5760405162461bcd60e51b81526004016103a690611fd2565b60008381526065602090815260408083206001600160a01b038e8116855292528083208585039055908b1682528120805484929061112e908490612104565b9250508190555050505080611142906121b3565b9050611063565b50846001600160a01b0316866001600160a01b0316826001600160a01b03167f4a39dc06d4c0dbc64b70af90fd698a233a518aa5d07e595d983b8c0526c8f7fb8787604051611199929190611e82565b60405180910390a46111af8187878787876115ac565b505050505050565b600054610100900460ff166111de5760405162461bcd60e51b81526004016103a69061201c565b610b1781611676565b816001600160a01b0316836001600160a01b0316141561125b5760405162461bcd60e51b815260206004820152602960248201527f455243313135353a2073657474696e6720617070726f76616c20737461747573604482015268103337b91039b2b63360b91b60648201526084016103a6565b6001600160a01b03838116600081815260666020908152604080832094871680845294825291829020805460ff191686151590811790915591519182527f17307eab39ab6107e8899845ad3d59bd9653f200f220920489ca2b5937696c31910160405180910390a3505050565b6001600160a01b0384166112ee5760405162461bcd60e51b81526004016103a690611f8d565b3360006112fa856113f6565b90506000611307856113f6565b905060008681526065602090815260408083206001600160a01b038c1684529091529020548581101561134c5760405162461bcd60e51b81526004016103a690611fd2565b60008781526065602090815260408083206001600160a01b038d8116855292528083208985039055908a1682528120805488929061138b908490612104565b909155505060408051888152602081018890526001600160a01b03808b16928c821692918816917fc3d58168c5ae7397731d063d5bbf3d657854427343f4c083240f7aacaa2d0f62910160405180910390a46113eb848a8a8a8a8a611441565b505050505050505050565b60408051600180825281830190925260609160009190602080830190803683370190505090508281600081518110611430576114306121e4565b602090810291909101015292915050565b6001600160a01b0384163b156111af5760405163f23a6e6160e01b81526001600160a01b0385169063f23a6e61906114859089908990889088908890600401611e2a565b602060405180830381600087803b15801561149f57600080fd5b505af19250505080156114cf575060408051601f3d908101601f191682019092526114cc91810190611ae9565b60015b61157c576114db612210565b806308c379a0141561151557506114f061222c565b806114fb5750611517565b8060405162461bcd60e51b81526004016103a69190611eb0565b505b60405162461bcd60e51b815260206004820152603460248201527f455243313135353a207472616e7366657220746f206e6f6e20455243313135356044820152732932b1b2b4bb32b91034b6b83632b6b2b73a32b960611b60648201526084016103a6565b6001600160e01b0319811663f23a6e6160e01b14610fce5760405162461bcd60e51b81526004016103a690611f45565b6001600160a01b0384163b156111af5760405163bc197c8160e01b81526001600160a01b0385169063bc197c81906115f09089908990889088908890600401611dcc565b602060405180830381600087803b15801561160a57600080fd5b505af192505050801561163a575060408051601f3d908101601f1916820190925261163791810190611ae9565b60015b611646576114db612210565b6001600160e01b0319811663bc197c8160e01b14610fce5760405162461bcd60e51b81526004016103a690611f45565b600054610100900460ff1661169d5760405162461bcd60e51b81526004016103a69061201c565b610b17818051610b259060679060208401905b8280546116bc9061214c565b90600052602060002090601f0160209004810192826116de5760008555611724565b82601f106116f757805160ff1916838001178555611724565b82800160010185558215611724579182015b82811115611724578251825591602001919060010190611709565b50611730929150611734565b5090565b5b808211156117305760008155600101611735565b80356001600160a01b038116811461176057600080fd5b919050565b600082601f83011261177657600080fd5b81356020611783826120e1565b6040516117908282612187565b8381528281019150858301600585901b870184018810156117b057600080fd5b60005b858110156117cf578135845292840192908401906001016117b3565b5090979650505050505050565b600082601f8301126117ed57600080fd5b81356001600160401b03811115611806576118066121fa565b60405161181d601f8301601f191660200182612187565b81815284602083860101111561183257600080fd5b816020850160208301376000918101602001919091529392505050565b6000806040838503121561186257600080fd5b61186b83611749565b915061187960208401611749565b90509250929050565b600080600080600060a0868803121561189a57600080fd5b6118a386611749565b94506118b160208701611749565b935060408601356001600160401b03808211156118cd57600080fd5b6118d989838a01611765565b945060608801359150808211156118ef57600080fd5b6118fb89838a01611765565b9350608088013591508082111561191157600080fd5b5061191e888289016117dc565b9150509295509295909350565b600080600080600060a0868803121561194357600080fd5b61194c86611749565b945061195a60208701611749565b9350604086013592506060860135915060808601356001600160401b0381111561198357600080fd5b61191e888289016117dc565b600080604083850312156119a257600080fd5b6119ab83611749565b9150602083013580151581146119c057600080fd5b809150509250929050565b600080604083850312156119de57600080fd5b6119e783611749565b946020939093013593505050565b60008060408385031215611a0857600080fd5b82356001600160401b0380821115611a1f57600080fd5b818501915085601f830112611a3357600080fd5b81356020611a40826120e1565b604051611a4d8282612187565b8381528281019150858301600585901b870184018b1015611a6d57600080fd5b600096505b84871015611a9757611a8381611749565b835260019690960195918301918301611a72565b5096505086013592505080821115611aae57600080fd5b50611abb85828601611765565b9150509250929050565b600060208284031215611ad757600080fd5b8135611ae2816122b5565b9392505050565b600060208284031215611afb57600080fd5b8151611ae2816122b5565b60008060008060808587031215611b1c57600080fd5b84356001600160401b0380821115611b3357600080fd5b611b3f888389016117dc565b9550602087013594506040870135915080821115611b5c57600080fd5b50611b69878288016117dc565b949793965093946060013593505050565b60008060008060808587031215611b9057600080fd5b84356001600160401b0380821115611ba757600080fd5b611bb3888389016117dc565b955060208701359450604087013593506060870135915080821115611bd757600080fd5b50611be4878288016117dc565b91505092959194509250565b600080600080600080600060e0888a031215611c0b57600080fd5b87356001600160401b0380821115611c2257600080fd5b611c2e8b838c016117dc565b985060208a0135975060408a0135965060608a0135955060808a0135945060a08a0135935060c08a0135915080821115611c6757600080fd5b50611c748a828b016117dc565b91505092959891949750929550565b600060208284031215611c9557600080fd5b5035919050565b60008060408385031215611caf57600080fd5b8235915060208301356001600160401b03811115611ccc57600080fd5b611abb858286016117dc565b60008060408385031215611ceb57600080fd5b50508035926020909101359150565b600080600060608486031215611d0f57600080fd5b833592506020840135915060408401356001600160401b03811115611d3357600080fd5b611d3f868287016117dc565b9150509250925092565b600081518084526020808501945080840160005b83811015611d7957815187529582019590820190600101611d5d565b509495945050505050565b60008151808452611d9c81602086016020860161211c565b601f01601f19169290920160200192915050565b60008251611dc281846020870161211c565b9190910192915050565b6001600160a01b0386811682528516602082015260a060408201819052600090611df890830186611d49565b8281036060840152611e0a8186611d49565b90508281036080840152611e1e8185611d84565b98975050505050505050565b6001600160a01b03868116825285166020820152604081018490526060810183905260a060808201819052600090611e6490830184611d84565b979650505050505050565b602081526000611ae26020830184611d49565b604081526000611e956040830185611d49565b8281036020840152611ea78185611d49565b95945050505050565b602081526000611ae26020830184611d84565b606081526000611ed66060830186611d84565b6020830194909452506001600160a01b0391909116604090910152919050565b6020808252602f908201527f455243313135353a2063616c6c6572206973206e6f7420746f6b656e206f776e60408201526e195c881b9bdc88185c1c1c9bdd9959608a1b606082015260800190565b60208082526028908201527f455243313135353a204552433131353552656365697665722072656a656374656040820152676420746f6b656e7360c01b606082015260800190565b60208082526025908201527f455243313135353a207472616e7366657220746f20746865207a65726f206164604082015264647265737360d81b606082015260800190565b6020808252602a908201527f455243313135353a20696e73756666696369656e742062616c616e636520666f60408201526939103a3930b739b332b960b11b606082015260800190565b6020808252602b908201527f496e697469616c697a61626c653a20636f6e7472616374206973206e6f74206960408201526a6e697469616c697a696e6760a81b606082015260800190565b8481526080602082015260006120806080830186611d84565b6040830194909452506001600160a01b039190911660609091015292915050565b85815260a0602082015260006120ba60a0830187611d84565b6040830195909552506001600160a01b039283166060820152911660809091015292915050565b60006001600160401b038211156120fa576120fa6121fa565b5060051b60200190565b60008219821115612117576121176121ce565b500190565b60005b8381101561213757818101518382015260200161211f565b83811115612146576000848401525b50505050565b600181811c9082168061216057607f821691505b6020821081141561218157634e487b7160e01b600052602260045260246000fd5b50919050565b601f8201601f191681016001600160401b03811182821017156121ac576121ac6121fa565b6040525050565b60006000198214156121c7576121c76121ce565b5060010190565b634e487b7160e01b600052601160045260246000fd5b634e487b7160e01b600052603260045260246000fd5b634e487b7160e01b600052604160045260246000fd5b600060033d11156122295760046000803e5060005160e01c5b90565b600060443d101561223a5790565b6040516003193d81016004833e81513d6001600160401b03816024840111818411171561226957505050505090565b82850191508151818111156122815750505050505090565b843d870101602082850101111561229b5750505050505090565b6122aa60208286010187612187565b509095945050505050565b6001600160e01b031981168114610b1757600080fdfe68747470733a2f2f64656e61697373616e63652e6d7970696e6174612e636c6f75642f697066732f7b69647da2646970667358221220f0209b5bc060d0dd166ed3c96dbfcd2be7804936eed8028f348ef40d4dc9acaa64736f6c63430008070033",
  "linkReferences": {},
  "deployedLinkReferences": {}
}