{
  "_format": "hh-sol-artifact-1",
  "contractName": "KlaytnKIP37Modify",
  "sourceName": "contracts/KlaytnKIP37Modify.sol",
  "abi": [
    {
      "anonymous": false,
      "inputs": [
        {
          "indexed": true,
          "internalType": "address",
          "name": "account",
          "type": "address"
        },
        {
          "indexed": true,
          "internalType": "address",
          "name": "operator",
          "type": "address"
        },
        {
          "indexed": false,
          "internalType": "bool",
          "name": "approved",
          "type": "bool"
        }
      ],
      "name": "ApprovalForAll",
      "type": "event"
    },
    {
      "anonymous": false,
      "inputs": [
        {
          "indexed": false,
          "internalType": "uint8",
          "name": "version",
          "type": "uint8"
        }
      ],
      "name": "Initialized",
      "type": "event"
    },
    {
      "anonymous": false,
      "inputs": [
        {
          "indexed": true,
          "internalType": "address",
          "name": "operator",
          "type": "address"
        },
        {
          "indexed": true,
          "internalType": "address",
          "name": "from",
          "type": "address"
        },
        {
          "indexed": true,
          "internalType": "address",
          "name": "to",
          "type": "address"
        },
        {
          "indexed": false,
          "internalType": "uint256[]",
          "name": "ids",
          "type": "uint256[]"
        },
        {
          "indexed": false,
          "internalType": "uint256[]",
          "name": "values",
          "type": "uint256[]"
        }
      ],
      "name": "TransferBatch",
      "type": "event"
    },
    {
      "anonymous": false,
      "inputs": [
        {
          "indexed": true,
          "internalType": "address",
          "name": "operator",
          "type": "address"
        },
        {
          "indexed": true,
          "internalType": "address",
          "name": "from",
          "type": "address"
        },
        {
          "indexed": true,
          "internalType": "address",
          "name": "to",
          "type": "address"
        },
        {
          "indexed": false,
          "internalType": "uint256",
          "name": "id",
          "type": "uint256"
        },
        {
          "indexed": false,
          "internalType": "uint256",
          "name": "value",
          "type": "uint256"
        }
      ],
      "name": "TransferSingle",
      "type": "event"
    },
    {
      "anonymous": false,
      "inputs": [
        {
          "indexed": false,
          "internalType": "string",
          "name": "value",
          "type": "string"
        },
        {
          "indexed": true,
          "internalType": "uint256",
          "name": "id",
          "type": "uint256"
        }
      ],
      "name": "URI",
      "type": "event"
    },
    {
      "anonymous": false,
      "inputs": [
        {
          "indexed": true,
          "internalType": "uint256",
          "name": "tokenId",
          "type": "uint256"
        },
        {
          "indexed": false,
          "internalType": "string",
          "name": "tokenUri",
          "type": "string"
        },
        {
          "indexed": false,
          "internalType": "uint256",
          "name": "quantity",
          "type": "uint256"
        },
        {
          "indexed": false,
          "internalType": "address",
          "name": "ownerAdress",
          "type": "address"
        }
      ],
      "name": "assetInformation",
      "type": "event"
    },
    {
      "anonymous": false,
      "inputs": [
        {
          "indexed": true,
          "internalType": "string",
          "name": "marektId",
          "type": "string"
        },
        {
          "indexed": false,
          "internalType": "uint256",
          "name": "tokenId",
          "type": "uint256"
        },
        {
          "indexed": false,
          "internalType": "string",
          "name": "tokenUri",
          "type": "string"
        },
        {
          "indexed": false,
          "internalType": "uint256",
          "name": "quantity",
          "type": "uint256"
        },
        {
          "indexed": false,
          "internalType": "address",
          "name": "ownerAdress",
          "type": "address"
        }
      ],
      "name": "marketInformation",
      "type": "event"
    },
    {
      "anonymous": false,
      "inputs": [
        {
          "indexed": true,
          "internalType": "string",
          "name": "marektId",
          "type": "string"
        },
        {
          "indexed": false,
          "internalType": "uint256",
          "name": "tokenId",
          "type": "uint256"
        },
        {
          "indexed": false,
          "internalType": "string",
          "name": "tokenUri",
          "type": "string"
        },
        {
          "indexed": false,
          "internalType": "uint256",
          "name": "quantity",
          "type": "uint256"
        },
        {
          "indexed": false,
          "internalType": "address",
          "name": "sellerAdress",
          "type": "address"
        },
        {
          "indexed": false,
          "internalType": "address",
          "name": "buyerAdress",
          "type": "address"
        }
      ],
      "name": "orderInformation",
      "type": "event"
    },
    {
      "inputs": [
        {
          "internalType": "address",
          "name": "account",
          "type": "address"
        },
        {
          "internalType": "uint256",
          "name": "id",
          "type": "uint256"
        }
      ],
      "name": "balanceOf",
      "outputs": [
        {
          "internalType": "uint256",
          "name": "",
          "type": "uint256"
        }
      ],
      "stateMutability": "view",
      "type": "function"
    },
    {
      "inputs": [
        {
          "internalType": "address[]",
          "name": "accounts",
          "type": "address[]"
        },
        {
          "internalType": "uint256[]",
          "name": "ids",
          "type": "uint256[]"
        }
      ],
      "name": "balanceOfBatch",
      "outputs": [
        {
          "internalType": "uint256[]",
          "name": "",
          "type": "uint256[]"
        }
      ],
      "stateMutability": "view",
      "type": "function"
    },
    {
      "inputs": [
        {
          "internalType": "address",
          "name": "operator",
          "type": "address"
        }
      ],
      "name": "deleteApprovalForAll",
      "outputs": [],
      "stateMutability": "nonpayable",
      "type": "function"
    },
    {
      "inputs": [],
      "name": "getOwner",
      "outputs": [
        {
          "internalType": "address",
          "name": "",
          "type": "address"
        }
      ],
      "stateMutability": "view",
      "type": "function"
    },
    {
      "inputs": [],
      "name": "initialize",
      "outputs": [],
      "stateMutability": "nonpayable",
      "type": "function"
    },
    {
      "inputs": [
        {
          "internalType": "address",
          "name": "account",
          "type": "address"
        },
        {
          "internalType": "address",
          "name": "operator",
          "type": "address"
        }
      ],
      "name": "isApprovedForAll",
      "outputs": [
        {
          "internalType": "bool",
          "name": "",
          "type": "bool"
        }
      ],
      "stateMutability": "view",
      "type": "function"
    },
    {
      "inputs": [
        {
          "internalType": "address",
          "name": "_creator",
          "type": "address"
        },
        {
          "internalType": "uint256",
          "name": "_tokenId",
          "type": "uint256"
        },
        {
          "internalType": "uint256",
          "name": "_quantity",
          "type": "uint256"
        }
      ],
      "name": "mint",
      "outputs": [],
      "stateMutability": "nonpayable",
      "type": "function"
    },
    {
      "inputs": [
        {
          "internalType": "address",
          "name": "from",
          "type": "address"
        },
        {
          "internalType": "address",
          "name": "to",
          "type": "address"
        },
        {
          "internalType": "uint256[]",
          "name": "ids",
          "type": "uint256[]"
        },
        {
          "internalType": "uint256[]",
          "name": "amounts",
          "type": "uint256[]"
        },
        {
          "internalType": "bytes",
          "name": "data",
          "type": "bytes"
        }
      ],
      "name": "safeBatchTransferFrom",
      "outputs": [],
      "stateMutability": "nonpayable",
      "type": "function"
    },
    {
      "inputs": [
        {
          "internalType": "address",
          "name": "from",
          "type": "address"
        },
        {
          "internalType": "address",
          "name": "to",
          "type": "address"
        },
        {
          "internalType": "uint256",
          "name": "id",
          "type": "uint256"
        },
        {
          "internalType": "uint256",
          "name": "amount",
          "type": "uint256"
        },
        {
          "internalType": "bytes",
          "name": "data",
          "type": "bytes"
        }
      ],
      "name": "safeTransferFrom",
      "outputs": [],
      "stateMutability": "nonpayable",
      "type": "function"
    },
    {
      "inputs": [
        {
          "internalType": "address",
          "name": "operator",
          "type": "address"
        },
        {
          "internalType": "bool",
          "name": "approved",
          "type": "bool"
        }
      ],
      "name": "setApprovalForAll",
      "outputs": [],
      "stateMutability": "nonpayable",
      "type": "function"
    },
    {
      "inputs": [
        {
          "internalType": "string",
          "name": "_marketId",
          "type": "string"
        },
        {
          "internalType": "uint256",
          "name": "_tokenId",
          "type": "uint256"
        },
        {
          "internalType": "string",
          "name": "_tokenUri",
          "type": "string"
        },
        {
          "internalType": "uint256",
          "name": "_quantity",
          "type": "uint256"
        },
        {
          "internalType": "bool",
          "name": "_isBalanceEmpty",
          "type": "bool"
        }
      ],
      "name": "setKRWOrder",
      "outputs": [
        {
          "internalType": "uint256",
          "name": "",
          "type": "uint256"
        }
      ],
      "stateMutability": "payable",
      "type": "function"
    },
    {
      "inputs": [
        {
          "internalType": "string",
          "name": "_marketId",
          "type": "string"
        },
        {
          "internalType": "uint256",
          "name": "_tokenId",
          "type": "uint256"
        },
        {
          "internalType": "string",
          "name": "_tokenUri",
          "type": "string"
        },
        {
          "internalType": "uint256",
          "name": "_quantity",
          "type": "uint256"
        },
        {
          "internalType": "bool",
          "name": "_isBalanceEmpty",
          "type": "bool"
        },
        {
          "internalType": "address",
          "name": "buyer",
          "type": "address"
        }
      ],
      "name": "setKRWOrderRestore",
      "outputs": [
        {
          "internalType": "uint256",
          "name": "",
          "type": "uint256"
        }
      ],
      "stateMutability": "payable",
      "type": "function"
    },
    {
      "inputs": [
        {
          "internalType": "string",
          "name": "_marketId",
          "type": "string"
        },
        {
          "internalType": "uint256",
          "name": "_tokenId",
          "type": "uint256"
        },
        {
          "internalType": "uint256",
          "name": "_supply",
          "type": "uint256"
        },
        {
          "internalType": "string",
          "name": "_tokenUri",
          "type": "string"
        },
        {
          "internalType": "address",
          "name": "_seller",
          "type": "address"
        }
      ],
      "name": "setListing",
      "outputs": [
        {
          "internalType": "string",
          "name": "",
          "type": "string"
        }
      ],
      "stateMutability": "nonpayable",
      "type": "function"
    },
    {
      "inputs": [
        {
          "internalType": "uint256",
          "name": "_tokenId",
          "type": "uint256"
        },
        {
          "internalType": "uint256",
          "name": "_supply",
          "type": "uint256"
        },
        {
          "internalType": "string",
          "name": "_tokenUri",
          "type": "string"
        },
        {
          "internalType": "address",
          "name": "_creator",
          "type": "address"
        }
      ],
      "name": "setMint",
      "outputs": [
        {
          "internalType": "uint256",
          "name": "",
          "type": "uint256"
        }
      ],
      "stateMutability": "nonpayable",
      "type": "function"
    },
    {
      "inputs": [
        {
          "internalType": "string",
          "name": "_marketId",
          "type": "string"
        },
        {
          "internalType": "uint256",
          "name": "_tokenId",
          "type": "uint256"
        },
        {
          "internalType": "uint256",
          "name": "_quantity",
          "type": "uint256"
        },
        {
          "internalType": "uint256",
          "name": "_createFee",
          "type": "uint256"
        },
        {
          "internalType": "uint256",
          "name": "_serviceFee",
          "type": "uint256"
        },
        {
          "internalType": "uint256",
          "name": "_sellerPrice",
          "type": "uint256"
        },
        {
          "internalType": "string",
          "name": "_tokenUri",
          "type": "string"
        },
        {
          "internalType": "bool",
          "name": "_isBalanceEmpty",
          "type": "bool"
        }
      ],
      "name": "setOrder",
      "outputs": [
        {
          "internalType": "uint256",
          "name": "",
          "type": "uint256"
        }
      ],
      "stateMutability": "payable",
      "type": "function"
    },
    {
      "inputs": [
        {
          "internalType": "uint256",
          "name": "_tokenId",
          "type": "uint256"
        },
        {
          "internalType": "string",
          "name": "_uri",
          "type": "string"
        }
      ],
      "name": "setTokenUri",
      "outputs": [],
      "stateMutability": "nonpayable",
      "type": "function"
    },
    {
      "inputs": [
        {
          "internalType": "bytes4",
          "name": "interfaceId",
          "type": "bytes4"
        }
      ],
      "name": "supportsInterface",
      "outputs": [
        {
          "internalType": "bool",
          "name": "",
          "type": "bool"
        }
      ],
      "stateMutability": "view",
      "type": "function"
    },
    {
      "inputs": [
        {
          "internalType": "uint256",
          "name": "tokenId",
          "type": "uint256"
        }
      ],
      "name": "uri",
      "outputs": [
        {
          "internalType": "string",
          "name": "",
          "type": "string"
        }
      ],
      "stateMutability": "view",
      "type": "function"
    }
  ],
  "bytecode": "0x608060405234801561001057600080fd5b50612a45806100206000396000f3fe6080604052600436106101085760003560e01c806379b62d5e11610095578063a22cb46511610064578063a22cb465146102cf578063d4f0fb40146102ef578063e985e9c51461030f578063f242432a1461032f578063fbfeebe01461034f57600080fd5b806379b62d5e146102525780638129fc1c14610272578063893d20e814610287578063894d826b146102af57600080fd5b8063156e29f6116100dc578063156e29f6146101b05780632eb2c2d6146101d2578063316f3910146101f25780634e1273f41461020557806357f7789e1461023257600080fd5b8062fdd58e1461010d57806301ffc9a71461014057806307385160146101705780630e89341c14610183575b600080fd5b34801561011957600080fd5b5061012d610128366004611f3e565b610362565b6040519081526020015b60405180910390f35b34801561014c57600080fd5b5061016061015b36600461206b565b6103fa565b6040519015158152602001610137565b61012d61017e3660046120a5565b61044c565b34801561018f57600080fd5b506101a361019e3660046122e1565b6106aa565b60405161013791906124fd565b3480156101bc57600080fd5b506101d06101cb366004611f68565b61074c565b005b3480156101de57600080fd5b506101d06101ed366004611e07565b6107c0565b61012d61020036600461212c565b61080c565b34801561021157600080fd5b50610225610220366004611f9b565b6109dd565b60405161013791906124bc565b34801561023e57600080fd5b506101d061024d3660046122fa565b610b06565b34801561025e57600080fd5b5061012d61026d366004612336565b610b89565b34801561027e57600080fd5b506101d0610cba565b34801561029357600080fd5b5060c9546040516001600160a01b039091168152602001610137565b3480156102bb57600080fd5b506101a36102ca3660046121c2565b610ded565b3480156102db57600080fd5b506101d06102ea366004611f14565b610f64565b3480156102fb57600080fd5b506101d061030a366004611db2565b610fa9565b34801561031b57600080fd5b5061016061032a366004611dd4565b611007565b34801561033b57600080fd5b506101d061034a366004611eb0565b611035565b61012d61035d36600461223d565b61107a565b60006001600160a01b0383166103d25760405162461bcd60e51b815260206004820152602a60248201527f455243313135353a2061646472657373207a65726f206973206e6f742061207660448201526930b634b21037bbb732b960b11b60648201526084015b60405180910390fd5b5060009081526065602090815260408083206001600160a01b03949094168352929052205490565b60006001600160e01b03198216636cdb3d1360e11b148061042b57506001600160e01b031982166303a24d0760e21b145b8061044657506301ffc9a760e01b6001600160e01b03198316145b92915050565b60c9546000906001600160a01b03163314806104a3575060c9546040516104a3916001600160a01b03169060cc90610485908a906123fd565b908152604051908190036020019020546001600160a01b0316611007565b6104e95760405162461bcd60e51b81526020600482015260176024820152764f6e6c79204f776e6572206f7220417070726f7665642160481b60448201526064016103c9565b600086511161050a5760405162461bcd60e51b81526004016103c9906125da565b8261053d60cc8860405161051e91906123fd565b908152604051908190036020019020546001600160a01b031687610362565b101561055b5760405162461bcd60e51b81526004016103c9906126e2565b6000851161057b5760405162461bcd60e51b81526004016103c99061270b565b600084511161059c5760405162461bcd60e51b81526004016103c99061266e565b6105ed60cc876040516105af91906123fd565b9081526040805191829003602090810183205483830190925260048352630307830360e41b908301526001600160a01b0316903390889087906113cb565b81156106245761062460cc8760405161060691906123fd565b908152604051908190036020019020546001600160a01b0316610fa9565b8560405161063291906123fd565b60405180910390207fd1755ff4ac6a7505a5f75484540b47382edcf994d187c692b51ed564efa785d786868660cc8b60405161066e91906123fd565b90815260405190819003602001812054610698949392916001600160a01b039091169033906127b9565b60405180910390a25092949350505050565b600081815260ca602052604090208054606091906106c790612864565b80601f01602080910402602001604051908101604052809291908181526020018280546106f390612864565b80156107405780601f1061071557610100808354040283529160200191610740565b820191906000526020600020905b81548152906001019060200180831161072357829003601f168201915b50505050509050919050565b60c9546001600160a01b031633146107765760405162461bcd60e51b81526004016103c990612604565b610791838383604051806020016040528060008152506114f9565b50600090815260cb6020526040902080546001600160a01b0319166001600160a01b0392909216919091179055565b6001600160a01b0385163314806107dc57506107dc8533611007565b6107f85760405162461bcd60e51b81526004016103c990612543565b610805858585858561160f565b5050505050565b60c9546000906001600160a01b031633146108395760405162461bcd60e51b81526004016103c990612604565b600087511161085a5760405162461bcd60e51b81526004016103c9906125da565b8361088d60cc8960405161086e91906123fd565b908152604051908190036020019020546001600160a01b031688610362565b10156108ab5760405162461bcd60e51b81526004016103c9906126e2565b600086116108cb5760405162461bcd60e51b81526004016103c99061270b565b60008551116108ec5760405162461bcd60e51b81526004016103c99061266e565b61093d60cc886040516108ff91906123fd565b9081526040805191829003602090810183205483830190925260048352630307830360e41b908301526001600160a01b0316908490899088906113cb565b82156109565761095660cc8860405161060691906123fd565b8660405161096491906123fd565b60405180910390207fd1755ff4ac6a7505a5f75484540b47382edcf994d187c692b51ed564efa785d787878760cc8c6040516109a091906123fd565b908152604051908190036020018120546109ca949392916001600160a01b039091169089906127b9565b60405180910390a2509395945050505050565b60608151835114610a425760405162461bcd60e51b815260206004820152602960248201527f455243313135353a206163636f756e747320616e6420696473206c656e677468604482015268040dad2e6dac2e8c6d60bb1b60648201526084016103c9565b600083516001600160401b03811115610a5d57610a5d612912565b604051908082528060200260200182016040528015610a86578160200160208202803683370190505b50905060005b8451811015610afe57610ad1858281518110610aaa57610aaa6128fc565b6020026020010151858381518110610ac457610ac46128fc565b6020026020010151610362565b828281518110610ae357610ae36128fc565b6020908102919091010152610af7816128cb565b9050610a8c565b509392505050565b600082815260ca602052604090208054610b1f90612864565b159050610b655760405162461bcd60e51b815260206004820152601460248201527343616e6e6f74207365742075726920747769636560601b60448201526064016103c9565b600082815260ca602090815260409091208251610b8492840190611c03565b505050565b60c9546000906001600160a01b03163314610bb65760405162461bcd60e51b81526004016103c990612604565b60008411610bf65760405162461bcd60e51b815260206004820152600d60248201526c436865636b20537570706c792160981b60448201526064016103c9565b60008511610c165760405162461bcd60e51b81526004016103c99061270b565b6000835111610c375760405162461bcd60e51b81526004016103c99061266e565b610c4282868661074c565b610c4c8584610b06565b600085815260cb60205260409081902080546001600160a01b0319166001600160a01b0385161790555185907f0a836d5d39466b2f36a382ee6a87b1a98c0e06d4da9c2c00222919c25f0bb5d390610ca990869088908790612510565b60405180910390a250929392505050565b600054610100900460ff1615808015610cda5750600054600160ff909116105b80610cf45750303b158015610cf4575060005460ff166001145b610d575760405162461bcd60e51b815260206004820152602e60248201527f496e697469616c697a61626c653a20636f6e747261637420697320616c72656160448201526d191e481a5b9a5d1a585b1a5e995960921b60648201526084016103c9565b6000805460ff191660011790558015610d7a576000805461ff0019166101001790555b610d83336117ef565b610da46040518060600160405280602c81526020016129e4602c9139611838565b8015610dea576000805461ff0019169055604051600181527f7f26b83ff96e1f2b6a682f133852f6798a09c465da95921460cefb38474024989060200160405180910390a15b50565b60c9546060906001600160a01b03163314610e1a5760405162461bcd60e51b81526004016103c990612604565b6000865111610e3b5760405162461bcd60e51b81526004016103c9906125da565b60008411610e7b5760405162461bcd60e51b815260206004820152600d60248201526c436865636b20537570706c792160981b60448201526064016103c9565b60008511610e9b5760405162461bcd60e51b81526004016103c99061270b565b6000835111610ebc5760405162461bcd60e51b81526004016103c99061266e565b8160cc87604051610ecd91906123fd565b90815260405190819003602001902080546001600160a01b03929092166001600160a01b0319909216919091179055610f07826001610f64565b85604051610f1591906123fd565b60405180910390207fb096e356679dacc242e62c27e88abe819c505dcfae5355c592b10d79b8425fbc86858786604051610f52949392919061277f565b60405180910390a25093949350505050565b60c9546001600160a01b03163314610f8e5760405162461bcd60e51b81526004016103c990612604565b60c954610fa5906001600160a01b03168383611868565b5050565b60c9546001600160a01b0316331480610fd3575060c954610fd3906001600160a01b031682611007565b610fef5760405162461bcd60e51b81526004016103c990612604565b60c954610dea906001600160a01b0316826000611868565b6001600160a01b03918216600090815260666020908152604080832093909416825291909152205460ff1690565b6001600160a01b03851633148061105157506110518533611007565b61106d5760405162461bcd60e51b81526004016103c990612543565b61080585858585856113cb565b60c9546000906001600160a01b03163314806110b3575060c9546040516110b3916001600160a01b03169060cc90610485908d906123fd565b6110f95760405162461bcd60e51b81526020600482015260176024820152764f6e6c79204f776e6572206f7220417070726f7665642160481b60448201526064016103c9565b600089511161111a5760405162461bcd60e51b81526004016103c9906125da565b8661114d60cc8b60405161112e91906123fd565b908152604051908190036020019020546001600160a01b03168a610362565b101561116b5760405162461bcd60e51b81526004016103c9906126e2565b6000881161118b5760405162461bcd60e51b81526004016103c99061270b565b60008351116111ac5760405162461bcd60e51b81526004016103c99061266e565b34846111b8878961281c565b6111c2919061281c565b146111fe5760405162461bcd60e51b815260206004820152600c60248201526b436865636b2050726963652160a01b60448201526064016103c9565b61124f60cc8a60405161121191906123fd565b9081526040805191829003602090810183205483830190925260048352630307830360e41b908301526001600160a01b03169033908b908b906113cb565b851561129b57600088815260cb60205260408082205490516001600160a01b039091169188156108fc02918991818181858888f19350505050158015611299573d6000803e3d6000fd5b505b60cc896040516112ab91906123fd565b908152604051908190036020018120546001600160a01b03169085156108fc029086906000818181858888f193505050501580156112ed573d6000803e3d6000fd5b5060c9546040516001600160a01b039091169086156108fc029087906000818181858888f19350505050158015611328573d6000803e3d6000fd5b5081156113425761134260cc8a60405161060691906123fd565b8860405161135091906123fd565b60405180910390207fd1755ff4ac6a7505a5f75484540b47382edcf994d187c692b51ed564efa785d789858a60cc8e60405161138c91906123fd565b908152604051908190036020018120546113b6949392916001600160a01b039091169033906127b9565b60405180910390a25095979650505050505050565b6001600160a01b0384166113f15760405162461bcd60e51b81526004016103c990612629565b3360006113fd85611949565b9050600061140a85611949565b905060008681526065602090815260408083206001600160a01b038c1684529091529020548581101561144f5760405162461bcd60e51b81526004016103c990612698565b60008781526065602090815260408083206001600160a01b038d8116855292528083208985039055908a1682528120805488929061148e90849061281c565b909155505060408051888152602081018890526001600160a01b03808b16928c821692918816917fc3d58168c5ae7397731d063d5bbf3d657854427343f4c083240f7aacaa2d0f62910160405180910390a46114ee848a8a8a8a8a611994565b505050505050505050565b6001600160a01b0384166115595760405162461bcd60e51b815260206004820152602160248201527f455243313135353a206d696e7420746f20746865207a65726f206164647265736044820152607360f81b60648201526084016103c9565b33600061156585611949565b9050600061157285611949565b905060008681526065602090815260408083206001600160a01b038b168452909152812080548792906115a690849061281c565b909155505060408051878152602081018790526001600160a01b03808a1692600092918716917fc3d58168c5ae7397731d063d5bbf3d657854427343f4c083240f7aacaa2d0f62910160405180910390a461160683600089898989611994565b50505050505050565b81518351146116715760405162461bcd60e51b815260206004820152602860248201527f455243313135353a2069647320616e6420616d6f756e7473206c656e677468206044820152670dad2e6dac2e8c6d60c31b60648201526084016103c9565b6001600160a01b0384166116975760405162461bcd60e51b81526004016103c990612629565b3360005b84518110156117815760008582815181106116b8576116b86128fc565b6020026020010151905060008583815181106116d6576116d66128fc565b60209081029190910181015160008481526065835260408082206001600160a01b038e1683529093529190912054909150818110156117275760405162461bcd60e51b81526004016103c990612698565b60008381526065602090815260408083206001600160a01b038e8116855292528083208585039055908b1682528120805484929061176690849061281c565b925050819055505050508061177a906128cb565b905061169b565b50846001600160a01b0316866001600160a01b0316826001600160a01b03167f4a39dc06d4c0dbc64b70af90fd698a233a518aa5d07e595d983b8c0526c8f7fb87876040516117d19291906124cf565b60405180910390a46117e7818787878787611aff565b505050505050565b600054610100900460ff166118165760405162461bcd60e51b81526004016103c990612734565b60c980546001600160a01b0319166001600160a01b0392909216919091179055565b600054610100900460ff1661185f5760405162461bcd60e51b81526004016103c990612734565b610dea81611bc9565b816001600160a01b0316836001600160a01b031614156118dc5760405162461bcd60e51b815260206004820152602960248201527f455243313135353a2073657474696e6720617070726f76616c20737461747573604482015268103337b91039b2b63360b91b60648201526084016103c9565b6001600160a01b03838116600081815260666020908152604080832094871680845294825291829020805460ff191686151590811790915591519182527f17307eab39ab6107e8899845ad3d59bd9653f200f220920489ca2b5937696c31910160405180910390a3505050565b60408051600180825281830190925260609160009190602080830190803683370190505090508281600081518110611983576119836128fc565b602090810291909101015292915050565b6001600160a01b0384163b156117e75760405163f23a6e6160e01b81526001600160a01b0385169063f23a6e61906119d89089908990889088908890600401612477565b602060405180830381600087803b1580156119f257600080fd5b505af1925050508015611a22575060408051601f3d908101601f19168201909252611a1f91810190612088565b60015b611acf57611a2e612928565b806308c379a01415611a685750611a43612944565b80611a4e5750611a6a565b8060405162461bcd60e51b81526004016103c991906124fd565b505b60405162461bcd60e51b815260206004820152603460248201527f455243313135353a207472616e7366657220746f206e6f6e20455243313135356044820152732932b1b2b4bb32b91034b6b83632b6b2b73a32b960611b60648201526084016103c9565b6001600160e01b0319811663f23a6e6160e01b146116065760405162461bcd60e51b81526004016103c990612592565b6001600160a01b0384163b156117e75760405163bc197c8160e01b81526001600160a01b0385169063bc197c8190611b439089908990889088908890600401612419565b602060405180830381600087803b158015611b5d57600080fd5b505af1925050508015611b8d575060408051601f3d908101601f19168201909252611b8a91810190612088565b60015b611b9957611a2e612928565b6001600160e01b0319811663bc197c8160e01b146116065760405162461bcd60e51b81526004016103c990612592565b600054610100900460ff16611bf05760405162461bcd60e51b81526004016103c990612734565b610dea818051610fa59060679060208401905b828054611c0f90612864565b90600052602060002090601f016020900481019282611c315760008555611c77565b82601f10611c4a57805160ff1916838001178555611c77565b82800160010185558215611c77579182015b82811115611c77578251825591602001919060010190611c5c565b50611c83929150611c87565b5090565b5b80821115611c835760008155600101611c88565b80356001600160a01b0381168114611cb357600080fd5b919050565b600082601f830112611cc957600080fd5b81356020611cd6826127f9565b604051611ce3828261289f565b8381528281019150858301600585901b87018401881015611d0357600080fd5b60005b85811015611d2257813584529284019290840190600101611d06565b5090979650505050505050565b80358015158114611cb357600080fd5b600082601f830112611d5057600080fd5b81356001600160401b03811115611d6957611d69612912565b604051611d80601f8301601f19166020018261289f565b818152846020838601011115611d9557600080fd5b816020850160208301376000918101602001919091529392505050565b600060208284031215611dc457600080fd5b611dcd82611c9c565b9392505050565b60008060408385031215611de757600080fd5b611df083611c9c565b9150611dfe60208401611c9c565b90509250929050565b600080600080600060a08688031215611e1f57600080fd5b611e2886611c9c565b9450611e3660208701611c9c565b935060408601356001600160401b0380821115611e5257600080fd5b611e5e89838a01611cb8565b94506060880135915080821115611e7457600080fd5b611e8089838a01611cb8565b93506080880135915080821115611e9657600080fd5b50611ea388828901611d3f565b9150509295509295909350565b600080600080600060a08688031215611ec857600080fd5b611ed186611c9c565b9450611edf60208701611c9c565b9350604086013592506060860135915060808601356001600160401b03811115611f0857600080fd5b611ea388828901611d3f565b60008060408385031215611f2757600080fd5b611f3083611c9c565b9150611dfe60208401611d2f565b60008060408385031215611f5157600080fd5b611f5a83611c9c565b946020939093013593505050565b600080600060608486031215611f7d57600080fd5b611f8684611c9c565b95602085013595506040909401359392505050565b60008060408385031215611fae57600080fd5b82356001600160401b0380821115611fc557600080fd5b818501915085601f830112611fd957600080fd5b81356020611fe6826127f9565b604051611ff3828261289f565b8381528281019150858301600585901b870184018b101561201357600080fd5b600096505b8487101561203d5761202981611c9c565b835260019690960195918301918301612018565b509650508601359250508082111561205457600080fd5b5061206185828601611cb8565b9150509250929050565b60006020828403121561207d57600080fd5b8135611dcd816129cd565b60006020828403121561209a57600080fd5b8151611dcd816129cd565b600080600080600060a086880312156120bd57600080fd5b85356001600160401b03808211156120d457600080fd5b6120e089838a01611d3f565b96506020880135955060408801359150808211156120fd57600080fd5b5061210a88828901611d3f565b9350506060860135915061212060808701611d2f565b90509295509295909350565b60008060008060008060c0878903121561214557600080fd5b86356001600160401b038082111561215c57600080fd5b6121688a838b01611d3f565b975060208901359650604089013591508082111561218557600080fd5b5061219289828a01611d3f565b945050606087013592506121a860808801611d2f565b91506121b660a08801611c9c565b90509295509295509295565b600080600080600060a086880312156121da57600080fd5b85356001600160401b03808211156121f157600080fd5b6121fd89838a01611d3f565b96506020880135955060408801359450606088013591508082111561222157600080fd5b5061222e88828901611d3f565b92505061212060808701611c9c565b600080600080600080600080610100898b03121561225a57600080fd5b88356001600160401b038082111561227157600080fd5b61227d8c838d01611d3f565b995060208b0135985060408b0135975060608b0135965060808b0135955060a08b0135945060c08b01359150808211156122b657600080fd5b506122c38b828c01611d3f565b9250506122d260e08a01611d2f565b90509295985092959890939650565b6000602082840312156122f357600080fd5b5035919050565b6000806040838503121561230d57600080fd5b8235915060208301356001600160401b0381111561232a57600080fd5b61206185828601611d3f565b6000806000806080858703121561234c57600080fd5b843593506020850135925060408501356001600160401b0381111561237057600080fd5b61237c87828801611d3f565b92505061238b60608601611c9c565b905092959194509250565b600081518084526020808501945080840160005b838110156123c6578151875295820195908201906001016123aa565b509495945050505050565b600081518084526123e9816020860160208601612834565b601f01601f19169290920160200192915050565b6000825161240f818460208701612834565b9190910192915050565b6001600160a01b0386811682528516602082015260a06040820181905260009061244590830186612396565b82810360608401526124578186612396565b9050828103608084015261246b81856123d1565b98975050505050505050565b6001600160a01b03868116825285166020820152604081018490526060810183905260a0608082018190526000906124b1908301846123d1565b979650505050505050565b602081526000611dcd6020830184612396565b6040815260006124e26040830185612396565b82810360208401526124f48185612396565b95945050505050565b602081526000611dcd60208301846123d1565b60608152600061252360608301866123d1565b6020830194909452506001600160a01b0391909116604090910152919050565b6020808252602f908201527f455243313135353a2063616c6c6572206973206e6f7420746f6b656e206f776e60408201526e195c881b9bdc88185c1c1c9bdd9959608a1b606082015260800190565b60208082526028908201527f455243313135353a204552433131353552656365697665722072656a656374656040820152676420746f6b656e7360c01b606082015260800190565b60208082526010908201526f436865636b204d61726b65742049642160801b604082015260600190565b6020808252600b908201526a4f6e6c79204f776e65722160a81b604082015260600190565b60208082526025908201527f455243313135353a207472616e7366657220746f20746865207a65726f206164604082015264647265737360d81b606082015260800190565b60208082526010908201526f436865636b20546f6b656e205572692160801b604082015260600190565b6020808252602a908201527f455243313135353a20696e73756666696369656e742062616c616e636520666f60408201526939103a3930b739b332b960b11b606082015260800190565b6020808252600f908201526e436865636b205175616e746974792160881b604082015260600190565b6020808252600f908201526e436865636b20546f6b656e2049642160881b604082015260600190565b6020808252602b908201527f496e697469616c697a61626c653a20636f6e7472616374206973206e6f74206960408201526a6e697469616c697a696e6760a81b606082015260800190565b84815260806020820152600061279860808301866123d1565b6040830194909452506001600160a01b039190911660609091015292915050565b85815260a0602082015260006127d260a08301876123d1565b6040830195909552506001600160a01b039283166060820152911660809091015292915050565b60006001600160401b0382111561281257612812612912565b5060051b60200190565b6000821982111561282f5761282f6128e6565b500190565b60005b8381101561284f578181015183820152602001612837565b8381111561285e576000848401525b50505050565b600181811c9082168061287857607f821691505b6020821081141561289957634e487b7160e01b600052602260045260246000fd5b50919050565b601f8201601f191681016001600160401b03811182821017156128c4576128c4612912565b6040525050565b60006000198214156128df576128df6128e6565b5060010190565b634e487b7160e01b600052601160045260246000fd5b634e487b7160e01b600052603260045260246000fd5b634e487b7160e01b600052604160045260246000fd5b600060033d11156129415760046000803e5060005160e01c5b90565b600060443d10156129525790565b6040516003193d81016004833e81513d6001600160401b03816024840111818411171561298157505050505090565b82850191508151818111156129995750505050505090565b843d87010160208285010111156129b35750505050505090565b6129c26020828601018761289f565b509095945050505050565b6001600160e01b031981168114610dea57600080fdfe68747470733a2f2f64656e61697373616e63652e6d7970696e6174612e636c6f75642f697066732f7b69647da264697066735822122021d74ada6b9b7151df98f6a0afc7acd3de64c10a48319a5933d68b4d46423dd764736f6c63430008070033",
  "linkReferences": {},
  "deployedLinkReferences": {}
}